

### 要求

![image-20240108142759998](https://javapub-common-oss.oss-cn-beijing.aliyuncs.com/javapub/202401081428797.png)





### src20转账实例

```bash
curl --user username --data-binary '{"jsonrpc": "1.0", "id": "curltest", "method": "getrawtransaction", "params": ["50aeb77245a9483a5b077e4e7506c331dc2f628c22046e7d2b4c6ad6c6236ae1", true]}' -H 'content-type: text/plain;' http://127.0.0.1:8332/
```

结果：

```bash
{"result":{"txid":"50aeb77245a9483a5b077e4e7506c331dc2f628c22046e7d2b4c6ad6c6236ae1","hash":"d045be2dc4647d92c1327fbd5572e6c7024f00f1e991b833f38cbdfb1a19577c","version":2,"size":451,"vsize":369,"weight":1474,"locktime":0,"vin":[{"txid":"6005ee8cc02e528e20c8e5ff71191723b0260391020862a03587a985f813dabe","vout":2,"scriptSig":{"asm":"","hex":""},"txinwitness":["3045022100bd8c27473a5a82cc9085af4fd530ffbcb8642fda04689ac27ecefa01287f54e5022040af2daafaa1bedd6f80ee9d751cc88c12de8f8e65b33222c432d066c8cecbd801","0314beffca49f214014cccdc0e1f7259aa1a5eeaaa34da1a4fd807e16fea3a86b0"],"sequence":4294967295}],"vout":[{"value":0.00000555,"n":0,"scriptPubKey":{"asm":"0 afdcc32a2778ebd36c4859c7301bb4c32cb59f93","hex":"0014afdcc32a2778ebd36c4859c7301bb4c32cb59f93","address":"bc1q4lwvx2380r4axmzgt8rnqxa5cvktt8unqlnka6","type":"witness_v0_keyhash"}},{"value":0.00000888,"n":1,"scriptPubKey":{"asm":"1 03c46b73fe2ff939bea5d0a577950dc8876e863bed11c887d681417dfd70533e51 039036c8182c70770f8f6bd702a25c7179bfff1ccb3a844297a717226b88b976cc 020202020202020202020202020202020202020202020202020202020202020202 3 OP_CHECKMULTISIG","hex":"512103c46b73fe2ff939bea5d0a577950dc8876e863bed11c887d681417dfd70533e5121039036c8182c70770f8f6bd702a25c7179bfff1ccb3a844297a717226b88b976cc2102020202020202020202020202020202020202020202020202020202020202020253ae","type":"multisig"}},{"value":0.00000888,"n":2,"scriptPubKey":{"asm":"1 02dc054e58b755f233295d2a8759a3e4cbf678619d8e75379e7989046dbce16be3 02932b35a45d21395ac8bb54b8f9dae3fd2dbc309c24e550cf2211fe6aa897e5ca 020202020202020202020202020202020202020202020202020202020202020202 3 OP_CHECKMULTISIG","hex":"512102dc054e58b755f233295d2a8759a3e4cbf678619d8e75379e7989046dbce16be32102932b35a45d21395ac8bb54b8f9dae3fd2dbc309c24e550cf2211fe6aa897e5ca2102020202020202020202020202020202020202020202020202020202020202020253ae","type":"multisig"}},{"value":0.00345194,"n":3,"scriptPubKey":{"asm":"0 cc1d6448d6879b3e260829d9a31717beb772186e","hex":"0014cc1d6448d6879b3e260829d9a31717beb772186e","address":"bc1qeswkgjxks7dnufsg98v6x9chh6mhyxrwrvdktf","type":"witness_v0_keyhash"}}],"hex":"02000000000101beda13f885a98735a0620802910326b023171971ffe5c8208e522ec08cee05600200000000ffffffff042b02000000000000160014afdcc32a2778ebd36c4859c7301bb4c32cb59f93780300000000000069512103c46b73fe2ff939bea5d0a577950dc8876e863bed11c887d681417dfd70533e5121039036c8182c70770f8f6bd702a25c7179bfff1ccb3a844297a717226b88b976cc2102020202020202020202020202020202020202020202020202020202020202020253ae780300000000000069512102dc054e58b755f233295d2a8759a3e4cbf678619d8e75379e7989046dbce16be32102932b35a45d21395ac8bb54b8f9dae3fd2dbc309c24e550cf2211fe6aa897e5ca2102020202020202020202020202020202020202020202020202020202020202020253ae6a44050000000000160014cc1d6448d6879b3e260829d9a31717beb772186e02483045022100bd8c27473a5a82cc9085af4fd530ffbcb8642fda04689ac27ecefa01287f54e5022040af2daafaa1bedd6f80ee9d751cc88c12de8f8e65b33222c432d066c8cecbd801210314beffca49f214014cccdc0e1f7259aa1a5eeaaa34da1a4fd807e16fea3a86b000000000","blockhash":"00000000000000000005304641c363ce12d8a2a3b98c81d6b8b721cb37f66dfa","confirmations":31337,"time":1686278106,"blocktime":1686278106},"error":null,"id":"curltest"}
```



#### 解析







![image-20240109172618066](https://javapub-common-oss.oss-cn-beijing.aliyuncs.com/javapub/202401091726796.png)





参考：

- src20 解析： https://docs.openstamp.io/introduction/src20-protocol
- ordinals： https://docs.ordinals.com/inscriptions.html
- 比特币原理： https://www.aixinzhijie.com/books/261/master_bitcoin/_book/8/8.html

